{
    "_format": "hh-sol-artifact-1",
    "contractName": "MicroTwitter",
    "sourceName": "contracts/MicroTwitter.sol",
    "abi": [
        {
            "inputs": [],
            "stateMutability": "payable",
            "type": "constructor"
        },
        {
            "anonymous": false,
            "inputs": [
                {
                    "indexed": true,
                    "internalType": "address",
                    "name": "from",
                    "type": "address"
                },
                {
                    "indexed": false,
                    "internalType": "uint256",
                    "name": "timestamp",
                    "type": "uint256"
                },
                {
                    "indexed": false,
                    "internalType": "string",
                    "name": "message",
                    "type": "string"
                }
            ],
            "name": "NewTweet",
            "type": "event"
        },
        {
            "inputs": [],
            "name": "getAllTweets",
            "outputs": [
                {
                    "components": [
                        {
                            "internalType": "address",
                            "name": "twitters_address",
                            "type": "address"
                        },
                        {
                            "internalType": "string",
                            "name": "tweet",
                            "type": "string"
                        },
                        {
                            "internalType": "uint256",
                            "name": "timestamp",
                            "type": "uint256"
                        }
                    ],
                    "internalType": "struct MicroTwitter.Tweet[]",
                    "name": "",
                    "type": "tuple[]"
                }
            ],
            "stateMutability": "view",
            "type": "function"
        },
        {
            "inputs": [],
            "name": "getTotalTweets",
            "outputs": [
                {
                    "internalType": "uint256",
                    "name": "",
                    "type": "uint256"
                }
            ],
            "stateMutability": "view",
            "type": "function"
        },
        {
            "inputs": [
                {
                    "internalType": "address",
                    "name": "",
                    "type": "address"
                }
            ],
            "name": "lastTweetAt",
            "outputs": [
                {
                    "internalType": "uint256",
                    "name": "",
                    "type": "uint256"
                }
            ],
            "stateMutability": "view",
            "type": "function"
        },
        {
            "inputs": [
                {
                    "internalType": "string",
                    "name": "_message",
                    "type": "string"
                }
            ],
            "name": "tweet",
            "outputs": [],
            "stateMutability": "nonpayable",
            "type": "function"
        }
    ],
    "bytecode": "0x60806040526200004f6040518060400160405280601881526020017f48692066726f6d20636f6e747261637420636f6e736f6c6500000000000000008152506200007760201b620005171760201c565b606444426200005f9190620001c4565b6200006b919062000261565b60018190555062000308565b62000117816040516024016200008e919062000184565b6040516020818303038152906040527f41304fac000000000000000000000000000000000000000000000000000000007bffffffffffffffffffffffffffffffffffffffffffffffffffffffff19166020820180517bffffffffffffffffffffffffffffffffffffffffffffffffffffffff83818316178352505050506200011a60201b60201c565b50565b60008151905060006a636f6e736f6c652e6c6f679050602083016000808483855afa5050505050565b60006200015082620001a8565b6200015c8185620001b3565b93506200016e8185602086016200022b565b6200017981620002f7565b840191505092915050565b60006020820190508181036000830152620001a0818462000143565b905092915050565b600081519050919050565b600082825260208201905092915050565b6000620001d18262000221565b9150620001de8362000221565b9250827fffffffffffffffffffffffffffffffffffffffffffffffffffffffffffffffff0382111562000216576200021562000299565b5b828201905092915050565b6000819050919050565b60005b838110156200024b5780820151818401526020810190506200022e565b838111156200025b576000848401525b50505050565b60006200026e8262000221565b91506200027b8362000221565b9250826200028e576200028d620002c8565b5b828206905092915050565b7f4e487b7100000000000000000000000000000000000000000000000000000000600052601160045260246000fd5b7f4e487b7100000000000000000000000000000000000000000000000000000000600052601260045260246000fd5b6000601f19601f8301169050919050565b610e5b80620003186000396000f3fe608060405234801561001057600080fd5b506004361061004c5760003560e01c8063532561351461005157806393f11c271461006f578063e245056c1461008d578063fb46d4c5146100bd575b600080fd5b6100596100d9565b6040516100669190610a45565b60405180910390f35b61007761022a565b6040516100849190610b09565b60405180910390f35b6100a760048036038101906100a29190610831565b610275565b6040516100b49190610b09565b60405180910390f35b6100d760048036038101906100d2919061085a565b61028d565b005b60606002805480602002602001604051908101604052809291908181526020016000905b8282101561022157838290600052602060002090600302016040518060600160405290816000820160009054906101000a900473ffffffffffffffffffffffffffffffffffffffff1673ffffffffffffffffffffffffffffffffffffffff1673ffffffffffffffffffffffffffffffffffffffff16815260200160018201805461018690610ce4565b80601f01602080910402602001604051908101604052809291908181526020018280546101b290610ce4565b80156101ff5780601f106101d4576101008083540402835291602001916101ff565b820191906000526020600020905b8154815290600101906020018083116101e257829003601f168201915b50505050508152602001600282015481525050815260200190600101906100fd565b50505050905090565b600061026d6040518060400160405280601681526020017f5765206861766520256420746f74616c207761766573000000000000000000008152506000546105b0565b600054905090565b60036020528060005260406000206000915090505481565b42610384600360003373ffffffffffffffffffffffffffffffffffffffff1673ffffffffffffffffffffffffffffffffffffffff168152602001908152602001600020546102db9190610c10565b1061031b576040517f08c379a000000000000000000000000000000000000000000000000000000000815260040161031290610ae9565b60405180910390fd5b42600360003373ffffffffffffffffffffffffffffffffffffffff1673ffffffffffffffffffffffffffffffffffffffff1681526020019081526020016000208190555060016000808282546103719190610c10565b925050819055506103b76040518060400160405280600f81526020017f25732068617320747769747465642100000000000000000000000000000000008152503361064c565b600260405180606001604052803373ffffffffffffffffffffffffffffffffffffffff16815260200183815260200142815250908060018154018082558091505060019003906000526020600020906003020160009091909190915060008201518160000160006101000a81548173ffffffffffffffffffffffffffffffffffffffff021916908373ffffffffffffffffffffffffffffffffffffffff1602179055506020820151816001019080519060200190610476929190610711565b506040820151816002015550506104c46040518060400160405280601181526020017f52616e646f6d206e756d626572212025640000000000000000000000000000008152506001546105b0565b3373ffffffffffffffffffffffffffffffffffffffff167f247b19649778c81aad1923b4b49025b7eed6f664d6a4e802190bfb35724f95a9428360405161050c929190610b24565b60405180910390a250565b6105ad8160405160240161052b9190610a67565b6040516020818303038152906040527f41304fac000000000000000000000000000000000000000000000000000000007bffffffffffffffffffffffffffffffffffffffffffffffffffffffff19166020820180517bffffffffffffffffffffffffffffffffffffffffffffffffffffffff83818316178352505050506106e8565b50565b61064882826040516024016105c6929190610ab9565b6040516020818303038152906040527f9710a9d0000000000000000000000000000000000000000000000000000000007bffffffffffffffffffffffffffffffffffffffffffffffffffffffff19166020820180517bffffffffffffffffffffffffffffffffffffffffffffffffffffffff83818316178352505050506106e8565b5050565b6106e48282604051602401610662929190610a89565b6040516020818303038152906040527f319af333000000000000000000000000000000000000000000000000000000007bffffffffffffffffffffffffffffffffffffffffffffffffffffffff19166020820180517bffffffffffffffffffffffffffffffffffffffffffffffffffffffff83818316178352505050506106e8565b5050565b60008151905060006a636f6e736f6c652e6c6f679050602083016000808483855afa5050505050565b82805461071d90610ce4565b90600052602060002090601f01602090048101928261073f5760008555610786565b82601f1061075857805160ff1916838001178555610786565b82800160010185558215610786579182015b8281111561078557825182559160200191906001019061076a565b5b5090506107939190610797565b5090565b5b808211156107b0576000816000905550600101610798565b5090565b60006107c76107c284610b79565b610b54565b9050828152602081018484840111156107df57600080fd5b6107ea848285610ca2565b509392505050565b60008135905061080181610e0e565b92915050565b600082601f83011261081857600080fd5b81356108288482602086016107b4565b91505092915050565b60006020828403121561084357600080fd5b6000610851848285016107f2565b91505092915050565b60006020828403121561086c57600080fd5b600082013567ffffffffffffffff81111561088657600080fd5b61089284828501610807565b91505092915050565b60006108a783836109d7565b905092915050565b6108b881610c66565b82525050565b6108c781610c66565b82525050565b60006108d882610bba565b6108e28185610bdd565b9350836020820285016108f485610baa565b8060005b858110156109305784840389528151610911858261089b565b945061091c83610bd0565b925060208a019950506001810190506108f8565b50829750879550505050505092915050565b600061094d82610bc5565b6109578185610bee565b9350610967818560208601610cb1565b61097081610dd4565b840191505092915050565b600061098682610bc5565b6109908185610bff565b93506109a0818560208601610cb1565b6109a981610dd4565b840191505092915050565b60006109c1600883610bff565b91506109cc82610de5565b602082019050919050565b60006060830160008301516109ef60008601826108af565b5060208301518482036020860152610a078282610942565b9150506040830151610a1c6040860182610a27565b508091505092915050565b610a3081610c98565b82525050565b610a3f81610c98565b82525050565b60006020820190508181036000830152610a5f81846108cd565b905092915050565b60006020820190508181036000830152610a81818461097b565b905092915050565b60006040820190508181036000830152610aa3818561097b565b9050610ab260208301846108be565b9392505050565b60006040820190508181036000830152610ad3818561097b565b9050610ae26020830184610a36565b9392505050565b60006020820190508181036000830152610b02816109b4565b9050919050565b6000602082019050610b1e6000830184610a36565b92915050565b6000604082019050610b396000830185610a36565b8181036020830152610b4b818461097b565b90509392505050565b6000610b5e610b6f565b9050610b6a8282610d16565b919050565b6000604051905090565b600067ffffffffffffffff821115610b9457610b93610da5565b5b610b9d82610dd4565b9050602081019050919050565b6000819050602082019050919050565b600081519050919050565b600081519050919050565b6000602082019050919050565b600082825260208201905092915050565b600082825260208201905092915050565b600082825260208201905092915050565b6000610c1b82610c98565b9150610c2683610c98565b9250827fffffffffffffffffffffffffffffffffffffffffffffffffffffffffffffffff03821115610c5b57610c5a610d47565b5b828201905092915050565b6000610c7182610c78565b9050919050565b600073ffffffffffffffffffffffffffffffffffffffff82169050919050565b6000819050919050565b82818337600083830152505050565b60005b83811015610ccf578082015181840152602081019050610cb4565b83811115610cde576000848401525b50505050565b60006002820490506001821680610cfc57607f821691505b60208210811415610d1057610d0f610d76565b5b50919050565b610d1f82610dd4565b810181811067ffffffffffffffff82111715610d3e57610d3d610da5565b5b80604052505050565b7f4e487b7100000000000000000000000000000000000000000000000000000000600052601160045260246000fd5b7f4e487b7100000000000000000000000000000000000000000000000000000000600052602260045260246000fd5b7f4e487b7100000000000000000000000000000000000000000000000000000000600052604160045260246000fd5b6000601f19601f8301169050919050565b7f576169742031356d000000000000000000000000000000000000000000000000600082015250565b610e1781610c66565b8114610e2257600080fd5b5056fea264697066735822122016ec95a26fd1f79161481815661068cb00303b4ce19520d826dde7dc663179ad64736f6c63430008040033",
    "linkReferences": {},
    "deployedLinkReferences": {}
}